{"abi":[{"type":"constructor","inputs":[{"name":"priceFeed","type":"address","internalType":"address"}],"stateMutability":"nonpayable"},{"type":"fallback","stateMutability":"payable"},{"type":"receive","stateMutability":"payable"},{"type":"function","name":"MINIMUM_USD","inputs":[],"outputs":[{"name":"","type":"uint256","internalType":"uint256"}],"stateMutability":"view"},{"type":"function","name":"fund","inputs":[],"outputs":[],"stateMutability":"payable"},{"type":"function","name":"getAddressToAmountFunded","inputs":[{"name":"fundingAddress","type":"address","internalType":"address"}],"outputs":[{"name":"","type":"uint256","internalType":"uint256"}],"stateMutability":"view"},{"type":"function","name":"getFunder","inputs":[{"name":"index","type":"uint256","internalType":"uint256"}],"outputs":[{"name":"","type":"address","internalType":"address"}],"stateMutability":"view"},{"type":"function","name":"getOwner","inputs":[],"outputs":[{"name":"","type":"address","internalType":"address"}],"stateMutability":"view"},{"type":"function","name":"getVersion","inputs":[],"outputs":[{"name":"","type":"uint256","internalType":"uint256"}],"stateMutability":"view"},{"type":"function","name":"withdraw","inputs":[],"outputs":[],"stateMutability":"nonpayable"},{"type":"error","name":"FundMe__NotOwner","inputs":[]}],"bytecode":{"object":"0x60a060405234801561001057600080fd5b50604051610f56380380610f5683398181016040528101906100329190610110565b3373ffffffffffffffffffffffffffffffffffffffff1660808173ffffffffffffffffffffffffffffffffffffffff168152505080600260006101000a81548173ffffffffffffffffffffffffffffffffffffffff021916908373ffffffffffffffffffffffffffffffffffffffff1602179055505061013d565b600080fd5b600073ffffffffffffffffffffffffffffffffffffffff82169050919050565b60006100dd826100b2565b9050919050565b6100ed816100d2565b81146100f857600080fd5b50565b60008151905061010a816100e4565b92915050565b600060208284031215610126576101256100ad565b5b6000610134848285016100fb565b91505092915050565b608051610df761015f600039600081816103c601526106140152610df76000f3fe6080604052600436106100745760003560e01c80636b69a5921161004e5780636b69a5921461010c578063893d20e814610137578063b60d428814610162578063d7b4750c1461016c57610083565b80630343fb251461008d5780630d8e6e2c146100ca5780633ccfd60b146100f557610083565b36610083576100816101a9565b005b61008b6101a9565b005b34801561009957600080fd5b506100b460048036038101906100af9190610856565b6102e3565b6040516100c1919061089c565b60405180910390f35b3480156100d657600080fd5b506100df61032c565b6040516100ec919061089c565b60405180910390f35b34801561010157600080fd5b5061010a6103c4565b005b34801561011857600080fd5b50610121610604565b60405161012e919061089c565b60405180910390f35b34801561014357600080fd5b5061014c610610565b60405161015991906108c6565b60405180910390f35b61016a6101a9565b005b34801561017857600080fd5b50610193600480360381019061018e919061090d565b610638565b6040516101a091906108c6565b60405180910390f35b674563918244f400006101e7600260009054906101000a900473ffffffffffffffffffffffffffffffffffffffff163461067f90919063ffffffff16565b1015610228576040517f08c379a000000000000000000000000000000000000000000000000000000000815260040161021f90610997565b60405180910390fd5b6000339080600181540180825580915050600190039060005260206000200160009091909190916101000a81548173ffffffffffffffffffffffffffffffffffffffff021916908373ffffffffffffffffffffffffffffffffffffffff16021790555034600160003373ffffffffffffffffffffffffffffffffffffffff1673ffffffffffffffffffffffffffffffffffffffff16815260200190815260200160002060008282546102da91906109e6565b92505081905550565b6000600160008373ffffffffffffffffffffffffffffffffffffffff1673ffffffffffffffffffffffffffffffffffffffff168152602001908152602001600020549050919050565b6000600260009054906101000a900473ffffffffffffffffffffffffffffffffffffffff1673ffffffffffffffffffffffffffffffffffffffff166354fd4d506040518163ffffffff1660e01b8152600401602060405180830381865afa15801561039b573d6000803e3d6000fd5b505050506040513d601f19601f820116820180604052508101906103bf9190610a2f565b905090565b7f000000000000000000000000000000000000000000000000000000000000000073ffffffffffffffffffffffffffffffffffffffff163373ffffffffffffffffffffffffffffffffffffffff1614610449576040517f579610db00000000000000000000000000000000000000000000000000000000815260040160405180910390fd5b60005b6000805490508110156104f457600080828154811061046e5761046d610a5c565b5b9060005260206000200160009054906101000a900473ffffffffffffffffffffffffffffffffffffffff1690506000600160008373ffffffffffffffffffffffffffffffffffffffff1673ffffffffffffffffffffffffffffffffffffffff168152602001908152602001600020819055505080806104ec90610a8b565b91505061044c565b50600067ffffffffffffffff8111156105105761050f610ad3565b5b60405190808252806020026020018201604052801561053e5781602001602082028036833780820191505090505b506000908051906020019061055492919061074c565b5060003373ffffffffffffffffffffffffffffffffffffffff164760405161057b90610b33565b60006040518083038185875af1925050503d80600081146105b8576040519150601f19603f3d011682016040523d82523d6000602084013e6105bd565b606091505b5050905080610601576040517f08c379a00000000000000000000000000000000000000000000000000000000081526004016105f890610b94565b60405180910390fd5b50565b674563918244f4000081565b60007f0000000000000000000000000000000000000000000000000000000000000000905090565b600080828154811061064d5761064c610a5c565b5b9060005260206000200160009054906101000a900473ffffffffffffffffffffffffffffffffffffffff169050919050565b60008061068b836106bb565b90506000670de0b6b3a764000085836106a49190610bb4565b6106ae9190610c25565b9050809250505092915050565b6000808273ffffffffffffffffffffffffffffffffffffffff1663feaf968c6040518163ffffffff1660e01b815260040160a060405180830381865afa158015610709573d6000803e3d6000fd5b505050506040513d601f19601f8201168201806040525081019061072d9190610cce565b5050509150506402540be400816107449190610d49565b915050919050565b8280548282559060005260206000209081019282156107c5579160200282015b828111156107c45782518260006101000a81548173ffffffffffffffffffffffffffffffffffffffff021916908373ffffffffffffffffffffffffffffffffffffffff1602179055509160200191906001019061076c565b5b5090506107d291906107d6565b5090565b5b808211156107ef5760008160009055506001016107d7565b5090565b600080fd5b600073ffffffffffffffffffffffffffffffffffffffff82169050919050565b6000610823826107f8565b9050919050565b61083381610818565b811461083e57600080fd5b50565b6000813590506108508161082a565b92915050565b60006020828403121561086c5761086b6107f3565b5b600061087a84828501610841565b91505092915050565b6000819050919050565b61089681610883565b82525050565b60006020820190506108b1600083018461088d565b92915050565b6108c081610818565b82525050565b60006020820190506108db60008301846108b7565b92915050565b6108ea81610883565b81146108f557600080fd5b50565b600081359050610907816108e1565b92915050565b600060208284031215610923576109226107f3565b5b6000610931848285016108f8565b91505092915050565b600082825260208201905092915050565b7f4469646e27742073656e7420656e6f7567682045544800000000000000000000600082015250565b600061098160168361093a565b915061098c8261094b565b602082019050919050565b600060208201905081810360008301526109b081610974565b9050919050565b7f4e487b7100000000000000000000000000000000000000000000000000000000600052601160045260246000fd5b60006109f182610883565b91506109fc83610883565b9250828201905080821115610a1457610a136109b7565b5b92915050565b600081519050610a29816108e1565b92915050565b600060208284031215610a4557610a446107f3565b5b6000610a5384828501610a1a565b91505092915050565b7f4e487b7100000000000000000000000000000000000000000000000000000000600052603260045260246000fd5b6000610a9682610883565b91507fffffffffffffffffffffffffffffffffffffffffffffffffffffffffffffffff8203610ac857610ac76109b7565b5b600182019050919050565b7f4e487b7100000000000000000000000000000000000000000000000000000000600052604160045260246000fd5b600081905092915050565b50565b6000610b1d600083610b02565b9150610b2882610b0d565b600082019050919050565b6000610b3e82610b10565b9150819050919050565b7f43616c6c206661696c6564000000000000000000000000000000000000000000600082015250565b6000610b7e600b8361093a565b9150610b8982610b48565b602082019050919050565b60006020820190508181036000830152610bad81610b71565b9050919050565b6000610bbf82610883565b9150610bca83610883565b9250828202610bd881610883565b91508282048414831517610bef57610bee6109b7565b5b5092915050565b7f4e487b7100000000000000000000000000000000000000000000000000000000600052601260045260246000fd5b6000610c3082610883565b9150610c3b83610883565b925082610c4b57610c4a610bf6565b5b828204905092915050565b600069ffffffffffffffffffff82169050919050565b610c7581610c56565b8114610c8057600080fd5b50565b600081519050610c9281610c6c565b92915050565b6000819050919050565b610cab81610c98565b8114610cb657600080fd5b50565b600081519050610cc881610ca2565b92915050565b600080600080600060a08688031215610cea57610ce96107f3565b5b6000610cf888828901610c83565b9550506020610d0988828901610cb9565b9450506040610d1a88828901610a1a565b9350506060610d2b88828901610a1a565b9250506080610d3c88828901610c83565b9150509295509295909350565b6000610d5482610c98565b9150610d5f83610c98565b9250828202610d6d81610c98565b91507f80000000000000000000000000000000000000000000000000000000000000008414600084121615610da557610da46109b7565b5b8282058414831517610dba57610db96109b7565b5b509291505056fea26469706673582212204cbef910930e958c2241630306fb53ddec02b9dfa66e540b74aa84ec1ac991ad64736f6c63430008130033","linkReferences":{}},"methodIdentifiers":{"MINIMUM_USD()":"6b69a592","fund()":"b60d4288","getAddressToAmountFunded(address)":"0343fb25","getFunder(uint256)":"d7b4750c","getOwner()":"893d20e8","getVersion()":"0d8e6e2c","withdraw()":"3ccfd60b"},"id":22}