{"abi":[{"type":"constructor","inputs":[{"name":"priceFeed","type":"address","internalType":"address"}],"stateMutability":"nonpayable"},{"type":"fallback","stateMutability":"payable"},{"type":"receive","stateMutability":"payable"},{"type":"function","name":"MINIMUM_USD","inputs":[],"outputs":[{"name":"","type":"uint256","internalType":"uint256"}],"stateMutability":"view"},{"type":"function","name":"fund","inputs":[],"outputs":[],"stateMutability":"payable"},{"type":"function","name":"getAddressToAmountFunded","inputs":[{"name":"fundingAddress","type":"address","internalType":"address"}],"outputs":[{"name":"","type":"uint256","internalType":"uint256"}],"stateMutability":"view"},{"type":"function","name":"getFunder","inputs":[{"name":"index","type":"uint256","internalType":"uint256"}],"outputs":[{"name":"","type":"address","internalType":"address"}],"stateMutability":"view"},{"type":"function","name":"getVersion","inputs":[],"outputs":[{"name":"","type":"uint256","internalType":"uint256"}],"stateMutability":"view"},{"type":"function","name":"i_owner","inputs":[],"outputs":[{"name":"","type":"address","internalType":"address"}],"stateMutability":"view"},{"type":"function","name":"withdraw","inputs":[],"outputs":[],"stateMutability":"nonpayable"},{"type":"error","name":"FundMe__NotOwner","inputs":[]}],"bytecode":{"object":"0x60a060405234801561001057600080fd5b50604051610f52380380610f5283398181016040528101906100329190610110565b3373ffffffffffffffffffffffffffffffffffffffff1660808173ffffffffffffffffffffffffffffffffffffffff168152505080600260006101000a81548173ffffffffffffffffffffffffffffffffffffffff021916908373ffffffffffffffffffffffffffffffffffffffff1602179055505061013d565b600080fd5b600073ffffffffffffffffffffffffffffffffffffffff82169050919050565b60006100dd826100b2565b9050919050565b6100ed816100d2565b81146100f857600080fd5b50565b60008151905061010a816100e4565b92915050565b600060208284031215610126576101256100ad565b5b6000610134848285016100fb565b91505092915050565b608051610df361015f600039600081816103c601526106590152610df36000f3fe6080604052600436106100745760003560e01c80636b69a5921161004e5780636b69a5921461010c578063b60d428814610137578063d7b4750c14610141578063dba6335f1461017e57610083565b80630343fb251461008d5780630d8e6e2c146100ca5780633ccfd60b146100f557610083565b36610083576100816101a9565b005b61008b6101a9565b005b34801561009957600080fd5b506100b460048036038101906100af9190610852565b6102e3565b6040516100c19190610898565b60405180910390f35b3480156100d657600080fd5b506100df61032c565b6040516100ec9190610898565b60405180910390f35b34801561010157600080fd5b5061010a6103c4565b005b34801561011857600080fd5b50610121610604565b60405161012e9190610898565b60405180910390f35b61013f6101a9565b005b34801561014d57600080fd5b50610168600480360381019061016391906108df565b610610565b604051610175919061091b565b60405180910390f35b34801561018a57600080fd5b50610193610657565b6040516101a0919061091b565b60405180910390f35b674563918244f400006101e7600260009054906101000a900473ffffffffffffffffffffffffffffffffffffffff163461067b90919063ffffffff16565b1015610228576040517f08c379a000000000000000000000000000000000000000000000000000000000815260040161021f90610993565b60405180910390fd5b6000339080600181540180825580915050600190039060005260206000200160009091909190916101000a81548173ffffffffffffffffffffffffffffffffffffffff021916908373ffffffffffffffffffffffffffffffffffffffff16021790555034600160003373ffffffffffffffffffffffffffffffffffffffff1673ffffffffffffffffffffffffffffffffffffffff16815260200190815260200160002060008282546102da91906109e2565b92505081905550565b6000600160008373ffffffffffffffffffffffffffffffffffffffff1673ffffffffffffffffffffffffffffffffffffffff168152602001908152602001600020549050919050565b6000600260009054906101000a900473ffffffffffffffffffffffffffffffffffffffff1673ffffffffffffffffffffffffffffffffffffffff166354fd4d506040518163ffffffff1660e01b8152600401602060405180830381865afa15801561039b573d6000803e3d6000fd5b505050506040513d601f19601f820116820180604052508101906103bf9190610a2b565b905090565b7f000000000000000000000000000000000000000000000000000000000000000073ffffffffffffffffffffffffffffffffffffffff163373ffffffffffffffffffffffffffffffffffffffff1614610449576040517f579610db00000000000000000000000000000000000000000000000000000000815260040160405180910390fd5b60005b6000805490508110156104f457600080828154811061046e5761046d610a58565b5b9060005260206000200160009054906101000a900473ffffffffffffffffffffffffffffffffffffffff1690506000600160008373ffffffffffffffffffffffffffffffffffffffff1673ffffffffffffffffffffffffffffffffffffffff168152602001908152602001600020819055505080806104ec90610a87565b91505061044c565b50600067ffffffffffffffff8111156105105761050f610acf565b5b60405190808252806020026020018201604052801561053e5781602001602082028036833780820191505090505b5060009080519060200190610554929190610748565b5060003373ffffffffffffffffffffffffffffffffffffffff164760405161057b90610b2f565b60006040518083038185875af1925050503d80600081146105b8576040519150601f19603f3d011682016040523d82523d6000602084013e6105bd565b606091505b5050905080610601576040517f08c379a00000000000000000000000000000000000000000000000000000000081526004016105f890610b90565b60405180910390fd5b50565b674563918244f4000081565b600080828154811061062557610624610a58565b5b9060005260206000200160009054906101000a900473ffffffffffffffffffffffffffffffffffffffff169050919050565b7f000000000000000000000000000000000000000000000000000000000000000081565b600080610687836106b7565b90506000670de0b6b3a764000085836106a09190610bb0565b6106aa9190610c21565b9050809250505092915050565b6000808273ffffffffffffffffffffffffffffffffffffffff1663feaf968c6040518163ffffffff1660e01b815260040160a060405180830381865afa158015610705573d6000803e3d6000fd5b505050506040513d601f19601f820116820180604052508101906107299190610cca565b5050509150506402540be400816107409190610d45565b915050919050565b8280548282559060005260206000209081019282156107c1579160200282015b828111156107c05782518260006101000a81548173ffffffffffffffffffffffffffffffffffffffff021916908373ffffffffffffffffffffffffffffffffffffffff16021790555091602001919060010190610768565b5b5090506107ce91906107d2565b5090565b5b808211156107eb5760008160009055506001016107d3565b5090565b600080fd5b600073ffffffffffffffffffffffffffffffffffffffff82169050919050565b600061081f826107f4565b9050919050565b61082f81610814565b811461083a57600080fd5b50565b60008135905061084c81610826565b92915050565b600060208284031215610868576108676107ef565b5b60006108768482850161083d565b91505092915050565b6000819050919050565b6108928161087f565b82525050565b60006020820190506108ad6000830184610889565b92915050565b6108bc8161087f565b81146108c757600080fd5b50565b6000813590506108d9816108b3565b92915050565b6000602082840312156108f5576108f46107ef565b5b6000610903848285016108ca565b91505092915050565b61091581610814565b82525050565b6000602082019050610930600083018461090c565b92915050565b600082825260208201905092915050565b7f4469646e27742073656e7420656e6f7567682045544800000000000000000000600082015250565b600061097d601683610936565b915061098882610947565b602082019050919050565b600060208201905081810360008301526109ac81610970565b9050919050565b7f4e487b7100000000000000000000000000000000000000000000000000000000600052601160045260246000fd5b60006109ed8261087f565b91506109f88361087f565b9250828201905080821115610a1057610a0f6109b3565b5b92915050565b600081519050610a25816108b3565b92915050565b600060208284031215610a4157610a406107ef565b5b6000610a4f84828501610a16565b91505092915050565b7f4e487b7100000000000000000000000000000000000000000000000000000000600052603260045260246000fd5b6000610a928261087f565b91507fffffffffffffffffffffffffffffffffffffffffffffffffffffffffffffffff8203610ac457610ac36109b3565b5b600182019050919050565b7f4e487b7100000000000000000000000000000000000000000000000000000000600052604160045260246000fd5b600081905092915050565b50565b6000610b19600083610afe565b9150610b2482610b09565b600082019050919050565b6000610b3a82610b0c565b9150819050919050565b7f43616c6c206661696c6564000000000000000000000000000000000000000000600082015250565b6000610b7a600b83610936565b9150610b8582610b44565b602082019050919050565b60006020820190508181036000830152610ba981610b6d565b9050919050565b6000610bbb8261087f565b9150610bc68361087f565b9250828202610bd48161087f565b91508282048414831517610beb57610bea6109b3565b5b5092915050565b7f4e487b7100000000000000000000000000000000000000000000000000000000600052601260045260246000fd5b6000610c2c8261087f565b9150610c378361087f565b925082610c4757610c46610bf2565b5b828204905092915050565b600069ffffffffffffffffffff82169050919050565b610c7181610c52565b8114610c7c57600080fd5b50565b600081519050610c8e81610c68565b92915050565b6000819050919050565b610ca781610c94565b8114610cb257600080fd5b50565b600081519050610cc481610c9e565b92915050565b600080600080600060a08688031215610ce657610ce56107ef565b5b6000610cf488828901610c7f565b9550506020610d0588828901610cb5565b9450506040610d1688828901610a16565b9350506060610d2788828901610a16565b9250506080610d3888828901610c7f565b9150509295509295909350565b6000610d5082610c94565b9150610d5b83610c94565b9250828202610d6981610c94565b91507f80000000000000000000000000000000000000000000000000000000000000008414600084121615610da157610da06109b3565b5b8282058414831517610db657610db56109b3565b5b509291505056fea2646970667358221220112eb1c9f88cee800fe4a26c4a3972f40d360c4ef6f66d76b2d4890f4d8e0d9064736f6c63430008130033","linkReferences":{}},"methodIdentifiers":{"MINIMUM_USD()":"6b69a592","fund()":"b60d4288","getAddressToAmountFunded(address)":"0343fb25","getFunder(uint256)":"d7b4750c","getVersion()":"0d8e6e2c","i_owner()":"dba6335f","withdraw()":"3ccfd60b"},"id":22}