{"abi":[{"type":"constructor","inputs":[{"name":"priceFeed","type":"address","internalType":"address"}],"stateMutability":"nonpayable"},{"type":"fallback","stateMutability":"payable"},{"type":"receive","stateMutability":"payable"},{"type":"function","name":"MINIMUM_USD","inputs":[],"outputs":[{"name":"","type":"uint256","internalType":"uint256"}],"stateMutability":"view"},{"type":"function","name":"cheaperWithdraw","inputs":[],"outputs":[],"stateMutability":"nonpayable"},{"type":"function","name":"fund","inputs":[],"outputs":[],"stateMutability":"payable"},{"type":"function","name":"getAddressToAmountFunded","inputs":[{"name":"fundingAddress","type":"address","internalType":"address"}],"outputs":[{"name":"","type":"uint256","internalType":"uint256"}],"stateMutability":"view"},{"type":"function","name":"getFunder","inputs":[{"name":"index","type":"uint256","internalType":"uint256"}],"outputs":[{"name":"","type":"address","internalType":"address"}],"stateMutability":"view"},{"type":"function","name":"getOwner","inputs":[],"outputs":[{"name":"","type":"address","internalType":"address"}],"stateMutability":"view"},{"type":"function","name":"getVersion","inputs":[],"outputs":[{"name":"","type":"uint256","internalType":"uint256"}],"stateMutability":"view"},{"type":"function","name":"withdraw","inputs":[],"outputs":[],"stateMutability":"nonpayable"},{"type":"error","name":"FundMe__NotOwner","inputs":[]}],"bytecode":{"object":"0x60a06040523480156200001157600080fd5b50604051620011d7380380620011d783398181016040528101906200003791906200011d565b3373ffffffffffffffffffffffffffffffffffffffff1660808173ffffffffffffffffffffffffffffffffffffffff168152505080600260006101000a81548173ffffffffffffffffffffffffffffffffffffffff021916908373ffffffffffffffffffffffffffffffffffffffff160217905550506200014f565b600080fd5b600073ffffffffffffffffffffffffffffffffffffffff82169050919050565b6000620000e582620000b8565b9050919050565b620000f781620000d8565b81146200010357600080fd5b50565b6000815190506200011781620000ec565b92915050565b600060208284031215620001365762000135620000b3565b5b6000620001468482850162000106565b91505092915050565b60805161105e62000179600039600081816103e801528181610636015261065c015261105e6000f3fe60806040526004361061007f5760003560e01c8063893d20e81161004e578063893d20e814610142578063b60d42881461016d578063be2693f014610177578063d7b4750c1461018e5761008e565b80630343fb25146100985780630d8e6e2c146100d55780633ccfd60b146101005780636b69a592146101175761008e565b3661008e5761008c6101cb565b005b6100966101cb565b005b3480156100a457600080fd5b506100bf60048036038101906100ba9190610abd565b610305565b6040516100cc9190610b03565b60405180910390f35b3480156100e157600080fd5b506100ea61034e565b6040516100f79190610b03565b60405180910390f35b34801561010c57600080fd5b506101156103e6565b005b34801561012357600080fd5b5061012c610626565b6040516101399190610b03565b60405180910390f35b34801561014e57600080fd5b50610157610632565b6040516101649190610b2d565b60405180910390f35b6101756101cb565b005b34801561018357600080fd5b5061018c61065a565b005b34801561019a57600080fd5b506101b560048036038101906101b09190610b74565b61089f565b6040516101c29190610b2d565b60405180910390f35b674563918244f40000610209600260009054906101000a900473ffffffffffffffffffffffffffffffffffffffff16346108e690919063ffffffff16565b101561024a576040517f08c379a000000000000000000000000000000000000000000000000000000000815260040161024190610bfe565b60405180910390fd5b6000339080600181540180825580915050600190039060005260206000200160009091909190916101000a81548173ffffffffffffffffffffffffffffffffffffffff021916908373ffffffffffffffffffffffffffffffffffffffff16021790555034600160003373ffffffffffffffffffffffffffffffffffffffff1673ffffffffffffffffffffffffffffffffffffffff16815260200190815260200160002060008282546102fc9190610c4d565b92505081905550565b6000600160008373ffffffffffffffffffffffffffffffffffffffff1673ffffffffffffffffffffffffffffffffffffffff168152602001908152602001600020549050919050565b6000600260009054906101000a900473ffffffffffffffffffffffffffffffffffffffff1673ffffffffffffffffffffffffffffffffffffffff166354fd4d506040518163ffffffff1660e01b8152600401602060405180830381865afa1580156103bd573d6000803e3d6000fd5b505050506040513d601f19601f820116820180604052508101906103e19190610c96565b905090565b7f000000000000000000000000000000000000000000000000000000000000000073ffffffffffffffffffffffffffffffffffffffff163373ffffffffffffffffffffffffffffffffffffffff161461046b576040517f579610db00000000000000000000000000000000000000000000000000000000815260040160405180910390fd5b60005b6000805490508110156105165760008082815481106104905761048f610cc3565b5b9060005260206000200160009054906101000a900473ffffffffffffffffffffffffffffffffffffffff1690506000600160008373ffffffffffffffffffffffffffffffffffffffff1673ffffffffffffffffffffffffffffffffffffffff1681526020019081526020016000208190555050808061050e90610cf2565b91505061046e565b50600067ffffffffffffffff81111561053257610531610d3a565b5b6040519080825280602002602001820160405280156105605781602001602082028036833780820191505090505b50600090805190602001906105769291906109b3565b5060003373ffffffffffffffffffffffffffffffffffffffff164760405161059d90610d9a565b60006040518083038185875af1925050503d80600081146105da576040519150601f19603f3d011682016040523d82523d6000602084013e6105df565b606091505b5050905080610623576040517f08c379a000000000000000000000000000000000000000000000000000000000815260040161061a90610dfb565b60405180910390fd5b50565b674563918244f4000081565b60007f0000000000000000000000000000000000000000000000000000000000000000905090565b7f000000000000000000000000000000000000000000000000000000000000000073ffffffffffffffffffffffffffffffffffffffff163373ffffffffffffffffffffffffffffffffffffffff16146106df576040517f579610db00000000000000000000000000000000000000000000000000000000815260040160405180910390fd5b60008080549050905060005b8181101561078e57600080828154811061070857610707610cc3565b5b9060005260206000200160009054906101000a900473ffffffffffffffffffffffffffffffffffffffff1690506000600160008373ffffffffffffffffffffffffffffffffffffffff1673ffffffffffffffffffffffffffffffffffffffff1681526020019081526020016000208190555050808061078690610cf2565b9150506106eb565b50600067ffffffffffffffff8111156107aa576107a9610d3a565b5b6040519080825280602002602001820160405280156107d85781602001602082028036833780820191505090505b50600090805190602001906107ee9291906109b3565b5060003373ffffffffffffffffffffffffffffffffffffffff164760405161081590610d9a565b60006040518083038185875af1925050503d8060008114610852576040519150601f19603f3d011682016040523d82523d6000602084013e610857565b606091505b505090508061089b576040517f08c379a000000000000000000000000000000000000000000000000000000000815260040161089290610dfb565b60405180910390fd5b5050565b60008082815481106108b4576108b3610cc3565b5b9060005260206000200160009054906101000a900473ffffffffffffffffffffffffffffffffffffffff169050919050565b6000806108f283610922565b90506000670de0b6b3a7640000858361090b9190610e1b565b6109159190610e8c565b9050809250505092915050565b6000808273ffffffffffffffffffffffffffffffffffffffff1663feaf968c6040518163ffffffff1660e01b815260040160a060405180830381865afa158015610970573d6000803e3d6000fd5b505050506040513d601f19601f820116820180604052508101906109949190610f35565b5050509150506402540be400816109ab9190610fb0565b915050919050565b828054828255906000526020600020908101928215610a2c579160200282015b82811115610a2b5782518260006101000a81548173ffffffffffffffffffffffffffffffffffffffff021916908373ffffffffffffffffffffffffffffffffffffffff160217905550916020019190600101906109d3565b5b509050610a399190610a3d565b5090565b5b80821115610a56576000816000905550600101610a3e565b5090565b600080fd5b600073ffffffffffffffffffffffffffffffffffffffff82169050919050565b6000610a8a82610a5f565b9050919050565b610a9a81610a7f565b8114610aa557600080fd5b50565b600081359050610ab781610a91565b92915050565b600060208284031215610ad357610ad2610a5a565b5b6000610ae184828501610aa8565b91505092915050565b6000819050919050565b610afd81610aea565b82525050565b6000602082019050610b186000830184610af4565b92915050565b610b2781610a7f565b82525050565b6000602082019050610b426000830184610b1e565b92915050565b610b5181610aea565b8114610b5c57600080fd5b50565b600081359050610b6e81610b48565b92915050565b600060208284031215610b8a57610b89610a5a565b5b6000610b9884828501610b5f565b91505092915050565b600082825260208201905092915050565b7f4469646e27742073656e7420656e6f7567682045544800000000000000000000600082015250565b6000610be8601683610ba1565b9150610bf382610bb2565b602082019050919050565b60006020820190508181036000830152610c1781610bdb565b9050919050565b7f4e487b7100000000000000000000000000000000000000000000000000000000600052601160045260246000fd5b6000610c5882610aea565b9150610c6383610aea565b9250828201905080821115610c7b57610c7a610c1e565b5b92915050565b600081519050610c9081610b48565b92915050565b600060208284031215610cac57610cab610a5a565b5b6000610cba84828501610c81565b91505092915050565b7f4e487b7100000000000000000000000000000000000000000000000000000000600052603260045260246000fd5b6000610cfd82610aea565b91507fffffffffffffffffffffffffffffffffffffffffffffffffffffffffffffffff8203610d2f57610d2e610c1e565b5b600182019050919050565b7f4e487b7100000000000000000000000000000000000000000000000000000000600052604160045260246000fd5b600081905092915050565b50565b6000610d84600083610d69565b9150610d8f82610d74565b600082019050919050565b6000610da582610d77565b9150819050919050565b7f43616c6c206661696c6564000000000000000000000000000000000000000000600082015250565b6000610de5600b83610ba1565b9150610df082610daf565b602082019050919050565b60006020820190508181036000830152610e1481610dd8565b9050919050565b6000610e2682610aea565b9150610e3183610aea565b9250828202610e3f81610aea565b91508282048414831517610e5657610e55610c1e565b5b5092915050565b7f4e487b7100000000000000000000000000000000000000000000000000000000600052601260045260246000fd5b6000610e9782610aea565b9150610ea283610aea565b925082610eb257610eb1610e5d565b5b828204905092915050565b600069ffffffffffffffffffff82169050919050565b610edc81610ebd565b8114610ee757600080fd5b50565b600081519050610ef981610ed3565b92915050565b6000819050919050565b610f1281610eff565b8114610f1d57600080fd5b50565b600081519050610f2f81610f09565b92915050565b600080600080600060a08688031215610f5157610f50610a5a565b5b6000610f5f88828901610eea565b9550506020610f7088828901610f20565b9450506040610f8188828901610c81565b9350506060610f9288828901610c81565b9250506080610fa388828901610eea565b9150509295509295909350565b6000610fbb82610eff565b9150610fc683610eff565b9250828202610fd481610eff565b91507f8000000000000000000000000000000000000000000000000000000000000000841460008412161561100c5761100b610c1e565b5b828205841483151761102157611020610c1e565b5b509291505056fea264697066735822122093e5c54053cb74d3f6ffbf5514106de25a69992250a71735d082a19b94bc6bf864736f6c63430008130033","linkReferences":{}},"methodIdentifiers":{"MINIMUM_USD()":"6b69a592","cheaperWithdraw()":"be2693f0","fund()":"b60d4288","getAddressToAmountFunded(address)":"0343fb25","getFunder(uint256)":"d7b4750c","getOwner()":"893d20e8","getVersion()":"0d8e6e2c","withdraw()":"3ccfd60b"},"id":17}